S01000003331315F636F64652E7372656385
S113000012C02CC02BC0EEC129C028C027C026C0F6
S113001025C024C023C022C021C020C01FC01EC0D0
S11300201DC01CC01BC011241FBECFE5D4E0DEBF21
S1130030CDBF12E0A0E6B0E0EEEEF0E102C0059024
S11300400D92AA30B107D9F723E0AAE0B2E001C0CB
S11300501D92A537B207E1F7FED147C8D1CF80E49E
S113006087B980E886B90895877094B321E030E0B9
S1130070082E02C0220F331F0A94E2F72095292389
S113008024BB97B1892B87B9369A349BFECF84B1B0
S113009025B190E0922B08952F923F924F925F9258
S11300A06F927F928F929F92AF92BF92CF92DF9284
S11300B0EF92FF920F931F93CF93DF93CDB7DEB7E9
S11300C028970FB6F894DEBF0FBECDBF9C838B83F9
S11300D059017E836D836C01242E352E4B0184E1FE
S11300E0880E911C442E552E36017A8369837887B5
S11300F06F8380E0B9DFBC01660F771F660F771F3F
S1130100860F971FBC01672F77276695669580E059
S113011090E05BD37A826982F30161937193819356
S113012091933F0120E030E048EC52E4B5D29B01CA
S1130130AC01EF81F8856193719381939193F88772
S1130140EF83E981FA816081718182819381FDD39A
S1130150F20161937193819391932F0183EC99E060
S11301600197F1F700C00000EF81F885E815F90563
S113017009F0BFCF8B819C8144968D809E809A83A9
S11301808983F60121913191419151916F01F501DA
S1130190608171818281938117D2F50160837183BB
S11301A082839383F40121913191419151914F01C3
S11301B0F801608171818281938106D2F8016083A4
S11301C0718382839383F101219131914191519102
S11301D01F01F7016081718182819381F5D1F7015B
S11301E0608371838283938389819A81C816D90637
S11301F041F6F50160817181828193810DD4F5010D
S11302006083718382839383F80160817181828129
S1130210938102D4F8016083718382839383F7010D
S11302206081718182819381F7D3F7016083718347
S11302308283938328960FB6F894DEBF0FBECDBF9A
S1130240DF91CF911F910F91FF90EF90DF90CF90AE
S1130250BF90AF909F908F907F906F905F904F90E2
S11302603F902F9008958BE085BD89B7806889BF42
S113027089EF83BD789408958FB580688FBD80E43D
S113028090E09BBD8ABD08958FB580628FBD80E4E8
S113029090E099BD88BD08958FB58F778FBD1BBC45
S11302A01ABC08958FB58F7D8FBD19BC18BC0895F5
S11302B090E09C01220F331F220F331F820F931FE4
S11302C06AE070E0EED379BD68BD089590E09BBD0F
S11302D08ABD0895B99ABA9A80E490E09BBD8ABD1C
S11302E099BD88BD8FB580688FBD8FB580628FBD85
S11302F08FB581608FBD8EB588608EBD8EB58360ED
S11303008EBD0895CF93DF9300D000D01F92CDB758
S1130310DEB7FC0132972281822F90E0C0970A97C2
S113032088F43381832F90E0C0970A9798F444812E
S1130330842F90E0C0970A9788F429833A834B83EB
S11303401C8204C03196E7CF29831A82CE0101961C
S1130350CFD308C080818A33A9F7F6CF29833A83A3
S11303601B82F4CF0F900F900F900F900F90DF919E
S1130370CF910895EF92FF920F931F93CF93DF9342
S1130380C82FD92F8B017A01F90160817181828193
S11303909381EAD17F936F93F701608171818281A8
S11303A09381E2D17F936F93F8016081718182819F
S11303B09381DAD17F936F9382E690E09F938F933A
S11303C0DF93CF93BAD38DB79EB70A960FB6F8943E
S11303D09EBF0FBE8DBFDF91CF911F910F91FF90F4
S11303E0EF9008951F920F920FB60F9211242F933E
S11303F03F934F935F936F937F938F939F93AF93A9
S1130400BF93EF93FF9320E030E046E953E460911B
S11304100F0270911002809111029091120238D152
S113042088231CF429DF30DF05C036DF3BDF84E599
S113043091E089D0FF91EF91BF91AF919F918F91FE
S11304407F916F915F914F913F912F910F900FBECC
S11304500F901F9018953EDF02DE64D004DF2FE773
S113046088E391E0215080409040E1F700C0000013
S113047088E891E068D02FE788E391E0215080403C
S11304809040E1F700C0000087E593E071D02FE7CA
S113049088E391E0215080409040E1F700C00000E3
S11304A087E593E02FDF80930A0210DF80910A0230
S11304B0FFDE8DEA91E047D02FE788E391E02150F9
S11304C080409040E1F700C000000F2EFBE0EF2ECB
S11304D0F2E0FF2EF02D0FE012E023E132E047E1DD
S11304E052E06BE272E083E493E0D6DD23E132E094
S11304F0A801B7018FE392E03DDF8EEC91E023D0B9
S11305008FE392E020D080916000909161001BD035
S11305102FEF84E39CE0215080409040E1F700C03D
S11305200000FFCF1BB888E18AB986E880BD10BC03
S113053083E389B908955D9BFECF8CB908955F9BD1
S1130540FECF8CB108950F931F93CF93FC0180814C
S1130550882351F08F01C0E0EEDFCF5FF801EC0F8C
S1130560F11D80818111F8CFCF911F910F910895D2
S1130570EF92FF921F93CF93DF937C01E0DFF701AB
S11305808083319790819A3081F08D3081F010E032
S11305901F5FE701C10FD11DD2DF888321979881A6
S11305A09A3031F08D30A1F703C010E001C010E0A3
S11305B01150F701E10FF11D1082DF91CF911F91CE
S11305C0FF90EF9008955058BB27AA270ED083C1FF
S11305D074D130F079D120F031F49F3F11F41EF43E
S11305E069C10EF4E095E7FB51C1E92F85D180F391
S11305F0BA17620773078407950718F071F49EF51C
S11306009DC10EF4E0950B2EBA2FA02D0B01B9015C
S113061090010C01CA01A0011124FF27591B99F074
S1130620593F50F4503E68F11A16F040A22F232F80
S1130630342F4427585FF3CF469537952795A795D0
S1130640F0405395C9F77EF41F16BA0B620B730B77
S1130650840BBAF09150A1F0FF0FBB1F661F771FE8
S1130660881FC2F70EC0BA0F621F731F841F48F49D
S1130670879577956795B795F7959E3F08F0B3CF23
S11306809395880F08F09927EE0F9795879508950D
S1130690D9D008F481E008950CD01DC115D140F0E3
S11306A00CD130F021F45F3F19F0F0C0511147C173
S11306B001C122D198F39923C9F35523B1F3951BB2
S11306C0550BBB27AA2762177307840738F09F5F6F
S11306D05F4F220F331F441FAA1FA9F333D00E2EDE
S11306E03AF0E0E830D091505040E695001CCAF74B
S11306F029D0FE2F27D0660F771F881FBB1F261710
S113070037074807AB07B0E809F0BB0B802DBF01E2
S1130710FF2793585F4F2AF09E3F510568F0B6C0FB
S11307200EC15F3FECF3983EDCF3869577956795B1
S1130730B795F7959F5FC9F7880F911D9695879593
S113074097F90895E1E0660F771F881FBB1F6217B2
S113075073078407BA0720F0621B730B840BBA0B70
S1130760EE1F88F7E095089504D06894B111E7C0AE
S11307700895CAD088F09F5790F0B92F9927B751A0
S1130780A0F0D1F0660F771F881F991F1AF0BA9551
S1130790C9F712C0B13081F0D1D0B1E00895CEC014
S11307A0672F782F8827B85F39F0B93FCCF3869547
S11307B077956795B395D9F73EF4909580957095A4
S11307C061957F4F8F4F9F4F0895E89409C097FB21
S11307D03EF490958095709561957F4F8F4F9F4F14
S11307E09923A9F0F92F96E9BB279395F695879558
S11307F077956795B795F111F8CFFAF4BB0F11F41B
S113080060FF1BC06F5F7F4F8F4F9F4F16C08823C1
S113081011F096E911C0772321F09EE8872F762FF7
S113082005C0662371F096E8862F70E060E02AF038
S11308309A95660F771F881FDAF7880F9695879524
S113084097F90895990F0008550FAA0BE0E8FEEFF9
S113085016161706E807F907C0F012161306E40780
S1130860F50798F0621B730B840B950B39F40A2679
S113087061F0232B242B252B21F408950A2609F457
S1130880A140A6958FEF811D811D089597F99F675B
S113089080E870E060E008959F3F31F0915020F4CB
S11308A0879577956795B795880F911D9695879548
S11308B097F908959FEF80EC089500240A94161682
S11308C0170618060906089500240A94121613063A
S11308D0140605060895092E0394000C11F48823C8
S11308E052F0BB0F40F4BF2B11F460FF04C06F5FE4
S11308F07F4F8F4F9F4F089557FD9058440F551FBA
S113090059F05F3F71F04795880F97FB991F61F08D
S11309109F3F79F087950895121613061406551F04
S1130920F2CF4695F1DF08C0161617061806991F70
S1130930F1CF86957105610508940895E894BB2765
S113094066277727CB0197F908950BD0C4CFB5DF7D
S113095028F0BADF18F0952309F098CFABCF112413
S1130960EECFCADFA0F3959FD1F3950F50E0551F4A
S1130970629FF001729FBB27F00DB11D639FAA27F0
S1130980F00DB11DAA1F649F6627B00DA11D661F3F
S1130990829F2227B00DA11D621F739FB00DA11D60
S11309A0621F839FA00D611D221F749F3327A00D1A
S11309B0611D231F849F600D211D822F762F6A2FB6
S11309C011249F5750408AF0E1F088234AF0EE0F3B
S11309D0FF1FBB1F661F771F881F91505040A9F748
S11309E09E3F510570F052CFAACF5F3FECF3983E83
S11309F0DCF3869577956795B795F795E7959F5FAF
S1130A00C1F7FE2B880F911D9695879597F9089548
S1130A1011F40EF44FCF40CF77DFD0F39923D9F3FD
S1130A20CEF39F57550B87FF35D00024A0E640EA4C
S1130A30900180585695979528F4805C660F771F2F
S1130A40881F20F026173707480730F4621B730B02
S1130A50840B202931294A2BA69517940794202525
S1130A6031254A2758F7660F771F881F20F026176D
S1130A703707480730F4620B730B840B200D311DCC
S1130A80411DA09581F7B901842F9158880F96953F
S1130A908795089591505040660F771F881FD2F7AD
S1130AA0089597FB072E16F4009406D077FD08D01E
S1130AB00BD007FC05D03EF4909581959F4F089587
S1130AC0709561957F4F0895AA1BBB1B51E107C028
S1130AD0AA1FBB1FA617B70710F0A61BB70B881FCA
S1130AE0991F5A95A9F780959095BC01CD01089559
S1130AF0FC0188279927E89421912032E9F32930D1
S1130B0010F02E30C8F32B3239F02D3231F46894C2
S1130B1003C00BD0820F911D219120532A30C8F3BA
S1130B201EF4909581959F4F08957AE0979F902D9C
S1130B30879F802D910D11240895AEE0B0E0E2EA84
S1130B40F5E0AAC20D891E8986E08C831A83098385
S1130B508FEF9FE79E838D83AE01475E5F4F6F8962
S1130B60788DCE01019608D0EF81F885E00FF11F52
S1130B7010822E96E4E0ACC2ABE0B0E0E1ECF5E02C
S1130B807DC26C017B018A01FC011782168283817C
S1130B9081FFBFC1CE0101963C01F6019381F701AB
S1130BA093FD859193FF81917F01882309F4ADC161
S1130BB0853239F493FD859193FF81917F018532CC
S1130BC021F4B60190E0C0D1E8CF912C212C312C36
S1130BD0FFE1F315D8F08B3279F038F4803279F0F4
S1130BE08332A1F4232D20611DC08D3261F0803346
S1130BF069F4232D216016C0832D8260382EE32DE5
S1130C00E4603E2E2AC0F32DF8601DC037FC2DC0D1
S1130C1020ED280F2A3040F08E32B9F436FC75C12D
S1130C20232D2064322E19C036FE06C08AE0989E19
S1130C30200D1124922E11C0EAE02E9E200D1124C5
S1130C40222EF32DF0623F2E08C08C3621F4832D22
S1130C508068382E02C0883641F4F70193FD8591EF
S1130C6093FF81917F018111B3CF982F9F7D95547C
S1130C70933028F40C5F1F4F9FE399830DC0833694
S1130C8031F0833771F0833509F055C020C0F80185
S1130C90808189830E5F1F4F88248394912C530194
S1130CA012C02801F2E04F0E511CF801A080B1805F
S1130CB036FE03C0692D70E002C06FEF7FEFC501FF
S1130CC038D14C018201F32DFF773F2E15C0280146
S1130CD022E0420E511CF801A080B18036FE03C010
S1130CE0692D70E002C06FEF7FEFC50117D14C0191
S1130CF0F32DF0683F2E820133FC19C0822D90E061
S1130D0088169906A0F4B60180E290E01DD12A94D9
S1130D10F5CFF50137FC859137FE81915F01B6016E
S1130D2090E012D121102A9421E0821A91088114B2
S1130D30910479F7E1C0843611F0893639F5F80168
S1130D4037FE07C060817181828193810C5F1F4FE0
S1130D5008C060817181072E000C880B990B0E5F0F
S1130D601F4FF32DFF763F2E97FF09C09095809576
S1130D70709561957F4F8F4F9F4FF0683F2E2AE00B
S1130D8030E0A3011DD1882E861844C0853731F484
S1130D90232D2F7EB22E2AE030E025C0932D997F9B
S1130DA0B92E8F36C1F018F4883579F0AEC080378B
S1130DB019F0883721F0A9C0E92FE061BE2EB4FEF6
S1130DC00DC0FB2DF460BF2E09C034FE0AC0292FCC
S1130DD02660B22E06C028E030E005C020E130E0F5
S1130DE002C020E132E0F801B7FE07C060817181E2
S1130DF0828193810C5F1F4F06C06081718180E006
S1130E0090E00E5F1F4FA301DBD0882E8618FB2DC8
S1130E10FF773F2E36FE0DC0232D2E7FA22E891480
S1130E2058F434FE0BC032FC09C0832D8E7EA82EEC
S1130E3005C0B82CA32C03C0B82C01C0B92CA4FE47
S1130E400FC0FE01E80DF11D8081803321F49A2D3D
S1130E50997EA92E09C0A2FE06C0B394B39404C01F
S1130E608A2D867809F0B394A3FC10C0A0FE06C0B6
S1130E70B21480F4280C922C9B180DC0B21458F4B0
S1130E80B60180E290E060D0B394F8CFB21418F4C5
S1130E902B1802C0982C212CA4FE0FC0B60180E3AD
S1130EA090E052D0A2FE16C0A1FC03C088E790E0F7
S1130EB002C088E590E0B6010CC08A2D867851F016
S1130EC0A1FE02C08BE201C080E2A7FC8DE2B60164
S1130ED090E03AD0891430F4B60180E390E034D045
S1130EE09A94F8CF8A94F301E80DF11D8081B6013C
S1130EF090E02AD08110F6CF222009F44ECEB6011C
S1130F0080E290E021D02A94F7CFF6018681978180
S1130F1002C08FEF9FEF2B96E2E1CCC0FC0105905D
S1130F20615070400110D8F7809590958E0F9F1FE7
S1130F300895FC016150704001900110D8F780952C
S1130F4090958E0F9F1F08950F931F93CF93DF9358
S1130F50FB01238121FD03C08FEF9FEF2CC022FFF3
S1130F6016C046815781248135814217530744F4C2
S1130F70A081B1819D012F5F3F4F318320838C93EA
S1130F80268137812F5F3F4F3783268314C08B011F
S1130F90EC01FB010084F185E02D0995892BE1F634
S1130FA0D80116968D919C911797019617969C934C
S1130FB08E931697CE01DF91CF911F910F910895D3
S1130FC0FA01AA27283051F1203181F1E8946F9376
S1130FD06E7F6E5F7F4F8F4F9F4FAF4FB1E03ED01C
S1130FE0B4E03CD0670F781F891F9A1FA11D680FBA
S1130FF0791F8A1F911DA11D6A0F711D811D911DED
S1131000A11D20D009F468943F912AE0269F112461
S11310103019305D3193DEF6CF010895462F4770C5
S1131020405D4193B3E00FD0C9F7F6CF462F4F7020
S1131030405D4A3318F0495D31FD4052419302D07E
S1131040A9F7EACFB4E0A695979587957795679524
S1131050BA95C9F700976105710508959B01AC0124
S11310600A2E06945795479537952795BA95C9F74B
S1131070620F731F841F951FA01D08952F923F9226
S11310804F925F926F927F928F929F92AF92BF9294
S1131090CF92DF92EF92FF920F931F93CF93DF9340
S11310A0CDB7DEB7CA1BDB0B0FB6F894DEBF0FBE9D
S11310B0CDBF09942A88398848885F846E847D84EA
S11310C08C849B84AA84B984C884DF80EE80FD80EC
S11310D00C811B81AA81B981CE0FD11D0FB6F89462
S11110E0DEBF0FBECDBFED010895F894FFCF23
S11310EEDC017B0A092233223A0A097B0A09092206
S11310FE6D6663223A0A0909097B0A09090909225C
S113110E726571223A22313238222C0A09090909F0
S113111E22637572223A22313233220A0909097D79
S113112E2C0A090909227665722222312E322E33B7
S113113E222C0A09090922706172616D223A0A0988
S113114E09097B0A0909090922707772223A2225B4
S113115E6457220A090909092266726571223A2224
S113116E313030485A220A0909090922637572720C
S113117E223A2225646D41220A0909090922766F51
S113118E6C74223A22256456220A0909097D2C0A16
S113119E09090922636C72223A226577222C0A0904
S11311AE0909226577223A5B22636D70725374616A
S11311BE6C6C6564222C22706973746F6E436F6C51
S11311CE6C6973696F6E225D0A090909227573656C
S11311DE72223A0050574D412C50574D41205049E0
S11311EE4E5320495320434C4F5345442E2E5448BE
S11311FE452043555252454E54204953205645528C
S113120E5920484947480A00554152542049532011
S113121E5245414459202E2E2053454E44205448C5
S113122E45204D455353414745203A0A0050574DEA
S113123E412C50574D412020574F524B2057495463
S113124E4820445554594359434C452E0A004A5399
S113125E4F4E20535452494E473A0A000A0909097F
S113126E7B0A0909090922706973746F6E436F6CE6
S113127E6C6973696F6E223A20226E6F220A090915
S10D128E097D0A097D0A7D0A0000AB
S9030000FC
